{"abi":[{"type":"function","name":"allUsers","inputs":[{"name":"","type":"uint256","internalType":"uint256"}],"outputs":[{"name":"","type":"address","internalType":"address"}],"stateMutability":"view"},{"type":"function","name":"deleteOtherUser","inputs":[{"name":"userAddress","type":"address","internalType":"address"}],"outputs":[],"stateMutability":"nonpayable"},{"type":"function","name":"deleteUser","inputs":[],"outputs":[],"stateMutability":"nonpayable"},{"type":"function","name":"getAllUsers","inputs":[],"outputs":[{"name":"","type":"address[]","internalType":"address[]"}],"stateMutability":"view"},{"type":"function","name":"getUserCount","inputs":[],"outputs":[{"name":"","type":"uint256","internalType":"uint256"}],"stateMutability":"view"},{"type":"function","name":"getUserDetails","inputs":[{"name":"userAddress","type":"address","internalType":"address"}],"outputs":[{"name":"ensName","type":"string","internalType":"string"},{"name":"displayName","type":"string","internalType":"string"},{"name":"avatarHash","type":"string","internalType":"string"},{"name":"profilePictureHash","type":"string","internalType":"string"},{"name":"bio","type":"string","internalType":"string"},{"name":"statusMessage","type":"string","internalType":"string"},{"name":"publicKey","type":"string","internalType":"string"},{"name":"privacy","type":"tuple","internalType":"struct WhisprRegistry.PrivacySettings","components":[{"name":"ensNameVisibility","type":"uint8","internalType":"enum WhisprRegistry.Visibility"},{"name":"displayNameVisibility","type":"uint8","internalType":"enum WhisprRegistry.Visibility"},{"name":"avatarVisibility","type":"uint8","internalType":"enum WhisprRegistry.Visibility"},{"name":"profilePictureVisibility","type":"uint8","internalType":"enum WhisprRegistry.Visibility"},{"name":"bioVisibility","type":"uint8","internalType":"enum WhisprRegistry.Visibility"},{"name":"statusMessageVisibility","type":"uint8","internalType":"enum WhisprRegistry.Visibility"},{"name":"publicKeyVisibility","type":"uint8","internalType":"enum WhisprRegistry.Visibility"}]},{"name":"registered","type":"bool","internalType":"bool"},{"name":"lastUpdated","type":"uint256","internalType":"uint256"}],"stateMutability":"view"},{"type":"function","name":"getVisibleProfile","inputs":[{"name":"userAddress","type":"address","internalType":"address"},{"name":"viewer","type":"address","internalType":"address"}],"outputs":[{"name":"","type":"tuple","internalType":"struct WhisprRegistry.VisibleProfile","components":[{"name":"ensName","type":"string","internalType":"string"},{"name":"displayName","type":"string","internalType":"string"},{"name":"avatarHash","type":"string","internalType":"string"},{"name":"profilePictureHash","type":"string","internalType":"string"},{"name":"bio","type":"string","internalType":"string"},{"name":"statusMessage","type":"string","internalType":"string"},{"name":"publicKey","type":"string","internalType":"string"}]}],"stateMutability":"view"},{"type":"function","name":"isUserRegistered","inputs":[{"name":"userAddress","type":"address","internalType":"address"}],"outputs":[{"name":"","type":"bool","internalType":"bool"}],"stateMutability":"view"},{"type":"function","name":"registerUser","inputs":[{"name":"ensName","type":"string","internalType":"string"},{"name":"avatarHash","type":"string","internalType":"string"},{"name":"publicKey","type":"string","internalType":"string"},{"name":"displayName","type":"string","internalType":"string"},{"name":"bio","type":"string","internalType":"string"},{"name":"statusMessage","type":"string","internalType":"string"},{"name":"profilePictureHash","type":"string","internalType":"string"}],"outputs":[],"stateMutability":"nonpayable"},{"type":"function","name":"updateBio","inputs":[{"name":"bio","type":"string","internalType":"string"}],"outputs":[],"stateMutability":"nonpayable"},{"type":"function","name":"updateDisplayName","inputs":[{"name":"displayName","type":"string","internalType":"string"}],"outputs":[],"stateMutability":"nonpayable"},{"type":"function","name":"updatePrivacySettings","inputs":[{"name":"privacy","type":"tuple","internalType":"struct WhisprRegistry.PrivacySettings","components":[{"name":"ensNameVisibility","type":"uint8","internalType":"enum WhisprRegistry.Visibility"},{"name":"displayNameVisibility","type":"uint8","internalType":"enum WhisprRegistry.Visibility"},{"name":"avatarVisibility","type":"uint8","internalType":"enum WhisprRegistry.Visibility"},{"name":"profilePictureVisibility","type":"uint8","internalType":"enum WhisprRegistry.Visibility"},{"name":"bioVisibility","type":"uint8","internalType":"enum WhisprRegistry.Visibility"},{"name":"statusMessageVisibility","type":"uint8","internalType":"enum WhisprRegistry.Visibility"},{"name":"publicKeyVisibility","type":"uint8","internalType":"enum WhisprRegistry.Visibility"}]}],"outputs":[],"stateMutability":"nonpayable"},{"type":"function","name":"updateProfile","inputs":[{"name":"displayName","type":"string","internalType":"string"},{"name":"bio","type":"string","internalType":"string"},{"name":"statusMessage","type":"string","internalType":"string"},{"name":"profilePictureHash","type":"string","internalType":"string"}],"outputs":[],"stateMutability":"nonpayable"},{"type":"function","name":"updateProfilePicture","inputs":[{"name":"profilePictureHash","type":"string","internalType":"string"}],"outputs":[],"stateMutability":"nonpayable"},{"type":"function","name":"updateStatusMessage","inputs":[{"name":"statusMessage","type":"string","internalType":"string"}],"outputs":[],"stateMutability":"nonpayable"},{"type":"function","name":"users","inputs":[{"name":"","type":"address","internalType":"address"}],"outputs":[{"name":"ensName","type":"string","internalType":"string"},{"name":"displayName","type":"string","internalType":"string"},{"name":"avatarHash","type":"string","internalType":"string"},{"name":"profilePictureHash","type":"string","internalType":"string"},{"name":"bio","type":"string","internalType":"string"},{"name":"statusMessage","type":"string","internalType":"string"},{"name":"publicKey","type":"string","internalType":"string"},{"name":"privacy","type":"tuple","internalType":"struct WhisprRegistry.PrivacySettings","components":[{"name":"ensNameVisibility","type":"uint8","internalType":"enum WhisprRegistry.Visibility"},{"name":"displayNameVisibility","type":"uint8","internalType":"enum WhisprRegistry.Visibility"},{"name":"avatarVisibility","type":"uint8","internalType":"enum WhisprRegistry.Visibility"},{"name":"profilePictureVisibility","type":"uint8","internalType":"enum WhisprRegistry.Visibility"},{"name":"bioVisibility","type":"uint8","internalType":"enum WhisprRegistry.Visibility"},{"name":"statusMessageVisibility","type":"uint8","internalType":"enum WhisprRegistry.Visibility"},{"name":"publicKeyVisibility","type":"uint8","internalType":"enum WhisprRegistry.Visibility"}]},{"name":"registered","type":"bool","internalType":"bool"},{"name":"lastUpdated","type":"uint256","internalType":"uint256"}],"stateMutability":"view"},{"type":"event","name":"ProfileUpdated","inputs":[{"name":"userAddress","type":"address","indexed":true,"internalType":"address"}],"anonymous":false},{"type":"event","name":"UserDeleted","inputs":[{"name":"userAddress","type":"address","indexed":true,"internalType":"address"}],"anonymous":false},{"type":"event","name":"UserRegistered","inputs":[{"name":"userAddress","type":"address","indexed":true,"internalType":"address"},{"name":"ensName","type":"string","indexed":false,"internalType":"string"},{"name":"avatarHash","type":"string","indexed":false,"internalType":"string"}],"anonymous":false}],"bytecode":{"object":"0x6080604052348015600e575f5ffd5b506145f38061001c5f395ff3fe608060405234801561000f575f5ffd5b50600436106100fe575f3560e01c806376487b3811610095578063b5cb15f711610064578063b5cb15f714610299578063cc3d967b146102b7578063e2842d79146102f0578063f6cb96321461030e576100fe565b806376487b38146101f85780639483f25c14610214578063a2bdedf414610230578063a87430ba14610260576100fe565b80632f99d1d2116100d15780632f99d1d214610174578063401d3518146101a45780634ae8af09146101c0578063565a4dc3146101dc576100fe565b8063026ff05e1461010257806315412f411461010c578063163f7522146101285780632891cd3614610158575b5f5ffd5b61010a61032a565b005b61012660048036038101906101219190613737565b61088b565b005b610142600480360381019061013d91906137bc565b610b2a565b60405161014f9190613801565b60405180910390f35b610172600480360381019061016d91906138ce565b610b7e565b005b61018e60048036038101906101899190613915565b610ce0565b60405161019b9190613a76565b60405180910390f35b6101be60048036038101906101b991906138ce565b611736565b005b6101da60048036038101906101d59190613a96565b611898565b005b6101f660048036038101906101f191906138ce565b611d72565b005b610212600480360381019061020d91906138ce565b611ed4565b005b61022e60048036038101906102299190613bf7565b612036565b005b61024a60048036038101906102459190613cfe565b612282565b6040516102579190613d38565b60405180910390f35b61027a600480360381019061027591906137bc565b6122bd565b6040516102909a99989796959493929190613ea7565b60405180910390f35b6102a1612861565b6040516102ae9190613f72565b60405180910390f35b6102d160048036038101906102cc91906137bc565b61286d565b6040516102e79a99989796959493929190613ea7565b60405180910390f35b6102f8612ede565b6040516103059190614042565b60405180910390f35b610328600480360381019061032391906137bc565b612f69565b005b5f5f3373ffffffffffffffffffffffffffffffffffffffff1673ffffffffffffffffffffffffffffffffffffffff1681526020019081526020015f206008015f9054906101000a900460ff166103b5576040517f08c379a00000000000000000000000000000000000000000000000000000000081526004016103ac906140ac565b60405180910390fd5b5f5f5f3373ffffffffffffffffffffffffffffffffffffffff1673ffffffffffffffffffffffffffffffffffffffff1681526020019081526020015f206008015f6101000a81548160ff02191690831515021790555060405180602001604052805f8152505f5f3373ffffffffffffffffffffffffffffffffffffffff1673ffffffffffffffffffffffffffffffffffffffff1681526020019081526020015f205f01908161046491906142c7565b5060405180602001604052805f8152505f5f3373ffffffffffffffffffffffffffffffffffffffff1673ffffffffffffffffffffffffffffffffffffffff1681526020019081526020015f2060010190816104bf91906142c7565b5060405180602001604052805f8152505f5f3373ffffffffffffffffffffffffffffffffffffffff1673ffffffffffffffffffffffffffffffffffffffff1681526020019081526020015f20600201908161051a91906142c7565b5060405180602001604052805f8152505f5f3373ffffffffffffffffffffffffffffffffffffffff1673ffffffffffffffffffffffffffffffffffffffff1681526020019081526020015f20600301908161057591906142c7565b5060405180602001604052805f8152505f5f3373ffffffffffffffffffffffffffffffffffffffff1673ffffffffffffffffffffffffffffffffffffffff1681526020019081526020015f2060040190816105d091906142c7565b5060405180602001604052805f8152505f5f3373ffffffffffffffffffffffffffffffffffffffff1673ffffffffffffffffffffffffffffffffffffffff1681526020019081526020015f20600501908161062b91906142c7565b5060405180602001604052805f8152505f5f3373ffffffffffffffffffffffffffffffffffffffff1673ffffffffffffffffffffffffffffffffffffffff1681526020019081526020015f20600601908161068691906142c7565b505f5f5f3373ffffffffffffffffffffffffffffffffffffffff1673ffffffffffffffffffffffffffffffffffffffff1681526020019081526020015f20600901819055505f5f90505b600180549050811015610845573373ffffffffffffffffffffffffffffffffffffffff166001828154811061070857610707614396565b5b905f5260205f20015f9054906101000a900473ffffffffffffffffffffffffffffffffffffffff1673ffffffffffffffffffffffffffffffffffffffff160361083857600180808054905061075d91906143f0565b8154811061076e5761076d614396565b5b905f5260205f20015f9054906101000a900473ffffffffffffffffffffffffffffffffffffffff16600182815481106107aa576107a9614396565b5b905f5260205f20015f6101000a81548173ffffffffffffffffffffffffffffffffffffffff021916908373ffffffffffffffffffffffffffffffffffffffff160217905550600180548061080157610800614423565b5b600190038181905f5260205f20015f6101000a81549073ffffffffffffffffffffffffffffffffffffffff02191690559055610845565b80806001019150506106d0565b503373ffffffffffffffffffffffffffffffffffffffff167f4bc56f1321288dfb5b416cb3a7fd188723979f9e866c91d88eccf7fca039d03960405160405180910390a2565b5f5f3373ffffffffffffffffffffffffffffffffffffffff1673ffffffffffffffffffffffffffffffffffffffff1681526020019081526020015f206008015f9054906101000a900460ff16610916576040517f08c379a000000000000000000000000000000000000000000000000000000000815260040161090d9061449a565b60405180910390fd5b805f5f3373ffffffffffffffffffffffffffffffffffffffff1673ffffffffffffffffffffffffffffffffffffffff1681526020019081526020015f206007015f820151815f015f6101000a81548160ff0219169083600281111561097e5761097d613d99565b5b02179055506020820151815f0160016101000a81548160ff021916908360028111156109ad576109ac613d99565b5b02179055506040820151815f0160026101000a81548160ff021916908360028111156109dc576109db613d99565b5b02179055506060820151815f0160036101000a81548160ff02191690836002811115610a0b57610a0a613d99565b5b02179055506080820151815f0160046101000a81548160ff02191690836002811115610a3a57610a39613d99565b5b021790555060a0820151815f0160056101000a81548160ff02191690836002811115610a6957610a68613d99565b5b021790555060c0820151815f0160066101000a81548160ff02191690836002811115610a9857610a97613d99565b5b0217905550905050425f5f3373ffffffffffffffffffffffffffffffffffffffff1673ffffffffffffffffffffffffffffffffffffffff1681526020019081526020015f20600901819055503373ffffffffffffffffffffffffffffffffffffffff167fbe4ec58a792f909e102ee3d745d0c3b34a4d437a54d903c4db098d31c556422f60405160405180910390a250565b5f5f5f8373ffffffffffffffffffffffffffffffffffffffff1673ffffffffffffffffffffffffffffffffffffffff1681526020019081526020015f206008015f9054906101000a900460ff169050919050565b5f5f3373ffffffffffffffffffffffffffffffffffffffff1673ffffffffffffffffffffffffffffffffffffffff1681526020019081526020015f206008015f9054906101000a900460ff16610c09576040517f08c379a0000000000000000000000000000000000000000000000000000000008152600401610c009061449a565b60405180910390fd5b805f5f3373ffffffffffffffffffffffffffffffffffffffff1673ffffffffffffffffffffffffffffffffffffffff1681526020019081526020015f206005019081610c5591906142c7565b50425f5f3373ffffffffffffffffffffffffffffffffffffffff1673ffffffffffffffffffffffffffffffffffffffff1681526020019081526020015f20600901819055503373ffffffffffffffffffffffffffffffffffffffff167fbe4ec58a792f909e102ee3d745d0c3b34a4d437a54d903c4db098d31c556422f60405160405180910390a250565b610ce86134d5565b5f5f5f8573ffffffffffffffffffffffffffffffffffffffff1673ffffffffffffffffffffffffffffffffffffffff1681526020019081526020015f20604051806101400160405290815f82018054610d40906140f7565b80601f0160208091040260200160405190810160405280929190818152602001828054610d6c906140f7565b8015610db75780601f10610d8e57610100808354040283529160200191610db7565b820191905f5260205f20905b815481529060010190602001808311610d9a57829003601f168201915b50505050508152602001600182018054610dd0906140f7565b80601f0160208091040260200160405190810160405280929190818152602001828054610dfc906140f7565b8015610e475780601f10610e1e57610100808354040283529160200191610e47565b820191905f5260205f20905b815481529060010190602001808311610e2a57829003601f168201915b50505050508152602001600282018054610e60906140f7565b80601f0160208091040260200160405190810160405280929190818152602001828054610e8c906140f7565b8015610ed75780601f10610eae57610100808354040283529160200191610ed7565b820191905f5260205f20905b815481529060010190602001808311610eba57829003601f168201915b50505050508152602001600382018054610ef0906140f7565b80601f0160208091040260200160405190810160405280929190818152602001828054610f1c906140f7565b8015610f675780601f10610f3e57610100808354040283529160200191610f67565b820191905f5260205f20905b815481529060010190602001808311610f4a57829003601f168201915b50505050508152602001600482018054610f80906140f7565b80601f0160208091040260200160405190810160405280929190818152602001828054610fac906140f7565b8015610ff75780601f10610fce57610100808354040283529160200191610ff7565b820191905f5260205f20905b815481529060010190602001808311610fda57829003601f168201915b50505050508152602001600582018054611010906140f7565b80601f016020809104026020016040519081016040528092919081815260200182805461103c906140f7565b80156110875780601f1061105e57610100808354040283529160200191611087565b820191905f5260205f20905b81548152906001019060200180831161106a57829003601f168201915b505050505081526020016006820180546110a0906140f7565b80601f01602080910402602001604051908101604052809291908181526020018280546110cc906140f7565b80156111175780601f106110ee57610100808354040283529160200191611117565b820191905f5260205f20905b8154815290600101906020018083116110fa57829003601f168201915b50505050508152602001600782016040518060e00160405290815f82015f9054906101000a900460ff16600281111561115357611152613d99565b5b600281111561116557611164613d99565b5b81526020015f820160019054906101000a900460ff16600281111561118d5761118c613d99565b5b600281111561119f5761119e613d99565b5b81526020015f820160029054906101000a900460ff1660028111156111c7576111c6613d99565b5b60028111156111d9576111d8613d99565b5b81526020015f820160039054906101000a900460ff16600281111561120157611200613d99565b5b600281111561121357611212613d99565b5b81526020015f820160049054906101000a900460ff16600281111561123b5761123a613d99565b5b600281111561124d5761124c613d99565b5b81526020015f820160059054906101000a900460ff16600281111561127557611274613d99565b5b600281111561128757611286613d99565b5b81526020015f820160069054906101000a900460ff1660028111156112af576112ae613d99565b5b60028111156112c1576112c0613d99565b5b815250508152602001600882015f9054906101000a900460ff1615151515815260200160098201548152505090506112f76134d5565b5f8573ffffffffffffffffffffffffffffffffffffffff168573ffffffffffffffffffffffffffffffffffffffff16149050808061135f57505f600281111561134357611342613d99565b5b8360e001515f0151600281111561135d5761135c613d99565b5b145b806113a757506001600281111561137957611378613d99565b5b8360e001515f0151600281111561139357611392613d99565b5b1480156113a657506113a586866134cb565b5b5b156113b857825f0151825f01819052505b80806113ef57505f60028111156113d2576113d1613d99565b5b8360e001516020015160028111156113ed576113ec613d99565b5b145b8061143857506001600281111561140957611408613d99565b5b8360e0015160200151600281111561142457611423613d99565b5b148015611437575061143686866134cb565b5b5b1561144b57826020015182602001819052505b808061148257505f600281111561146557611464613d99565b5b8360e001516040015160028111156114805761147f613d99565b5b145b806114cb57506001600281111561149c5761149b613d99565b5b8360e001516040015160028111156114b7576114b6613d99565b5b1480156114ca57506114c986866134cb565b5b5b156114de57826040015182604001819052505b808061151557505f60028111156114f8576114f7613d99565b5b8360e0015160600151600281111561151357611512613d99565b5b145b8061155e57506001600281111561152f5761152e613d99565b5b8360e0015160600151600281111561154a57611549613d99565b5b14801561155d575061155c86866134cb565b5b5b1561157157826060015182606001819052505b80806115a857505f600281111561158b5761158a613d99565b5b8360e001516080015160028111156115a6576115a5613d99565b5b145b806115f15750600160028111156115c2576115c1613d99565b5b8360e001516080015160028111156115dd576115dc613d99565b5b1480156115f057506115ef86866134cb565b5b5b1561160457826080015182608001819052505b808061163b57505f600281111561161e5761161d613d99565b5b8360e0015160a00151600281111561163957611638613d99565b5b145b8061168457506001600281111561165557611654613d99565b5b8360e0015160a0015160028111156116705761166f613d99565b5b148015611683575061168286866134cb565b5b5b15611697578260a001518260a001819052505b80806116ce57505f60028111156116b1576116b0613d99565b5b8360e0015160c0015160028111156116cc576116cb613d99565b5b145b806117175750600160028111156116e8576116e7613d99565b5b8360e0015160c00151600281111561170357611702613d99565b5b148015611716575061171586866134cb565b5b5b1561172a578260c001518260c001819052505b81935050505092915050565b5f5f3373ffffffffffffffffffffffffffffffffffffffff1673ffffffffffffffffffffffffffffffffffffffff1681526020019081526020015f206008015f9054906101000a900460ff166117c1576040517f08c379a00000000000000000000000000000000000000000000000000000000081526004016117b89061449a565b60405180910390fd5b805f5f3373ffffffffffffffffffffffffffffffffffffffff1673ffffffffffffffffffffffffffffffffffffffff1681526020019081526020015f20600101908161180d91906142c7565b50425f5f3373ffffffffffffffffffffffffffffffffffffffff1673ffffffffffffffffffffffffffffffffffffffff1681526020019081526020015f20600901819055503373ffffffffffffffffffffffffffffffffffffffff167fbe4ec58a792f909e102ee3d745d0c3b34a4d437a54d903c4db098d31c556422f60405160405180910390a250565b5f5f3373ffffffffffffffffffffffffffffffffffffffff1673ffffffffffffffffffffffffffffffffffffffff1681526020019081526020015f206008015f9054906101000a900460ff1615611924576040517f08c379a000000000000000000000000000000000000000000000000000000000815260040161191b90614502565b60405180910390fd5b5f875111611967576040517f08c379a000000000000000000000000000000000000000000000000000000000815260040161195e9061456a565b60405180910390fd5b5f6040518060e001604052805f600281111561198657611985613d99565b5b81526020015f600281111561199e5761199d613d99565b5b81526020015f60028111156119b6576119b5613d99565b5b81526020015f60028111156119ce576119cd613d99565b5b81526020016002808111156119e6576119e5613d99565b5b81526020016002808111156119fe576119fd613d99565b5b81526020015f6002811115611a1657611a15613d99565b5b8152509050604051806101400160405280898152602001868152602001888152602001838152602001858152602001848152602001878152602001828152602001600115158152602001428152505f5f3373ffffffffffffffffffffffffffffffffffffffff1673ffffffffffffffffffffffffffffffffffffffff1681526020019081526020015f205f820151815f019081611ab391906142c7565b506020820151816001019081611ac991906142c7565b506040820151816002019081611adf91906142c7565b506060820151816003019081611af591906142c7565b506080820151816004019081611b0b91906142c7565b5060a0820151816005019081611b2191906142c7565b5060c0820151816006019081611b3791906142c7565b5060e0820151816007015f820151815f015f6101000a81548160ff02191690836002811115611b6957611b68613d99565b5b02179055506020820151815f0160016101000a81548160ff02191690836002811115611b9857611b97613d99565b5b02179055506040820151815f0160026101000a81548160ff02191690836002811115611bc757611bc6613d99565b5b02179055506060820151815f0160036101000a81548160ff02191690836002811115611bf657611bf5613d99565b5b02179055506080820151815f0160046101000a81548160ff02191690836002811115611c2557611c24613d99565b5b021790555060a0820151815f0160056101000a81548160ff02191690836002811115611c5457611c53613d99565b5b021790555060c0820151815f0160066101000a81548160ff02191690836002811115611c8357611c82613d99565b5b02179055505050610100820151816008015f6101000a81548160ff0219169083151502179055506101208201518160090155905050600133908060018154018082558091505060019003905f5260205f20015f9091909190916101000a81548173ffffffffffffffffffffffffffffffffffffffff021916908373ffffffffffffffffffffffffffffffffffffffff1602179055503373ffffffffffffffffffffffffffffffffffffffff167f92822564bab8864c3a47b34e8d23fbce5c46234eb5da261f94087b995ac0f33b8989604051611d60929190614588565b60405180910390a25050505050505050565b5f5f3373ffffffffffffffffffffffffffffffffffffffff1673ffffffffffffffffffffffffffffffffffffffff1681526020019081526020015f206008015f9054906101000a900460ff16611dfd576040517f08c379a0000000000000000000000000000000000000000000000000000000008152600401611df49061449a565b60405180910390fd5b805f5f3373ffffffffffffffffffffffffffffffffffffffff1673ffffffffffffffffffffffffffffffffffffffff1681526020019081526020015f206003019081611e4991906142c7565b50425f5f3373ffffffffffffffffffffffffffffffffffffffff1673ffffffffffffffffffffffffffffffffffffffff1681526020019081526020015f20600901819055503373ffffffffffffffffffffffffffffffffffffffff167fbe4ec58a792f909e102ee3d745d0c3b34a4d437a54d903c4db098d31c556422f60405160405180910390a250565b5f5f3373ffffffffffffffffffffffffffffffffffffffff1673ffffffffffffffffffffffffffffffffffffffff1681526020019081526020015f206008015f9054906101000a900460ff16611f5f576040517f08c379a0000000000000000000000000000000000000000000000000000000008152600401611f569061449a565b60405180910390fd5b805f5f3373ffffffffffffffffffffffffffffffffffffffff1673ffffffffffffffffffffffffffffffffffffffff1681526020019081526020015f206004019081611fab91906142c7565b50425f5f3373ffffffffffffffffffffffffffffffffffffffff1673ffffffffffffffffffffffffffffffffffffffff1681526020019081526020015f20600901819055503373ffffffffffffffffffffffffffffffffffffffff167fbe4ec58a792f909e102ee3d745d0c3b34a4d437a54d903c4db098d31c556422f60405160405180910390a250565b5f5f3373ffffffffffffffffffffffffffffffffffffffff1673ffffffffffffffffffffffffffffffffffffffff1681526020019081526020015f206008015f9054906101000a900460ff166120c1576040517f08c379a00000000000000000000000000000000000000000000000000000000081526004016120b89061449a565b60405180910390fd5b835f5f3373ffffffffffffffffffffffffffffffffffffffff1673ffffffffffffffffffffffffffffffffffffffff1681526020019081526020015f20600101908161210d91906142c7565b50825f5f3373ffffffffffffffffffffffffffffffffffffffff1673ffffffffffffffffffffffffffffffffffffffff1681526020019081526020015f20600401908161215a91906142c7565b50815f5f3373ffffffffffffffffffffffffffffffffffffffff1673ffffffffffffffffffffffffffffffffffffffff1681526020019081526020015f2060050190816121a791906142c7565b50805f5f3373ffffffffffffffffffffffffffffffffffffffff1673ffffffffffffffffffffffffffffffffffffffff1681526020019081526020015f2060030190816121f491906142c7565b50425f5f3373ffffffffffffffffffffffffffffffffffffffff1673ffffffffffffffffffffffffffffffffffffffff1681526020019081526020015f20600901819055503373ffffffffffffffffffffffffffffffffffffffff167fbe4ec58a792f909e102ee3d745d0c3b34a4d437a54d903c4db098d31c556422f60405160405180910390a250505050565b60018181548110612291575f80fd5b905f5260205f20015f915054906101000a900473ffffffffffffffffffffffffffffffffffffffff1681565b5f602052805f5260405f205f91509050805f0180546122db906140f7565b80601f0160208091040260200160405190810160405280929190818152602001828054612307906140f7565b80156123525780601f1061232957610100808354040283529160200191612352565b820191905f5260205f20905b81548152906001019060200180831161233557829003601f168201915b505050505090806001018054612367906140f7565b80601f0160208091040260200160405190810160405280929190818152602001828054612393906140f7565b80156123de5780601f106123b5576101008083540402835291602001916123de565b820191905f5260205f20905b8154815290600101906020018083116123c157829003601f168201915b5050505050908060020180546123f3906140f7565b80601f016020809104026020016040519081016040528092919081815260200182805461241f906140f7565b801561246a5780601f106124415761010080835404028352916020019161246a565b820191905f5260205f20905b81548152906001019060200180831161244d57829003601f168201915b50505050509080600301805461247f906140f7565b80601f01602080910402602001604051908101604052809291908181526020018280546124ab906140f7565b80156124f65780601f106124cd576101008083540402835291602001916124f6565b820191905f5260205f20905b8154815290600101906020018083116124d957829003601f168201915b50505050509080600401805461250b906140f7565b80601f0160208091040260200160405190810160405280929190818152602001828054612537906140f7565b80156125825780601f1061255957610100808354040283529160200191612582565b820191905f5260205f20905b81548152906001019060200180831161256557829003601f168201915b505050505090806005018054612597906140f7565b80601f01602080910402602001604051908101604052809291908181526020018280546125c3906140f7565b801561260e5780601f106125e55761010080835404028352916020019161260e565b820191905f5260205f20905b8154815290600101906020018083116125f157829003601f168201915b505050505090806006018054612623906140f7565b80601f016020809104026020016040519081016040528092919081815260200182805461264f906140f7565b801561269a5780601f106126715761010080835404028352916020019161269a565b820191905f5260205f20905b81548152906001019060200180831161267d57829003601f168201915b505050505090806007016040518060e00160405290815f82015f9054906101000a900460ff1660028111156126d2576126d1613d99565b5b60028111156126e4576126e3613d99565b5b81526020015f820160019054906101000a900460ff16600281111561270c5761270b613d99565b5b600281111561271e5761271d613d99565b5b81526020015f820160029054906101000a900460ff16600281111561274657612745613d99565b5b600281111561275857612757613d99565b5b81526020015f820160039054906101000a900460ff1660028111156127805761277f613d99565b5b600281111561279257612791613d99565b5b81526020015f820160049054906101000a900460ff1660028111156127ba576127b9613d99565b5b60028111156127cc576127cb613d99565b5b81526020015f820160059054906101000a900460ff1660028111156127f4576127f3613d99565b5b600281111561280657612805613d99565b5b81526020015f820160069054906101000a900460ff16600281111561282e5761282d613d99565b5b60028111156128405761283f613d99565b5b8152505090806008015f9054906101000a900460ff1690806009015490508a565b5f600180549050905090565b6060806060806060806060612880613512565b5f5f5f5f5f8d73ffffffffffffffffffffffffffffffffffffffff1673ffffffffffffffffffffffffffffffffffffffff1681526020019081526020015f20604051806101400160405290815f820180546128da906140f7565b80601f0160208091040260200160405190810160405280929190818152602001828054612906906140f7565b80156129515780601f1061292857610100808354040283529160200191612951565b820191905f5260205f20905b81548152906001019060200180831161293457829003601f168201915b5050505050815260200160018201805461296a906140f7565b80601f0160208091040260200160405190810160405280929190818152602001828054612996906140f7565b80156129e15780601f106129b8576101008083540402835291602001916129e1565b820191905f5260205f20905b8154815290600101906020018083116129c457829003601f168201915b505050505081526020016002820180546129fa906140f7565b80601f0160208091040260200160405190810160405280929190818152602001828054612a26906140f7565b8015612a715780601f10612a4857610100808354040283529160200191612a71565b820191905f5260205f20905b815481529060010190602001808311612a5457829003601f168201915b50505050508152602001600382018054612a8a906140f7565b80601f0160208091040260200160405190810160405280929190818152602001828054612ab6906140f7565b8015612b015780601f10612ad857610100808354040283529160200191612b01565b820191905f5260205f20905b815481529060010190602001808311612ae457829003601f168201915b50505050508152602001600482018054612b1a906140f7565b80601f0160208091040260200160405190810160405280929190818152602001828054612b46906140f7565b8015612b915780601f10612b6857610100808354040283529160200191612b91565b820191905f5260205f20905b815481529060010190602001808311612b7457829003601f168201915b50505050508152602001600582018054612baa906140f7565b80601f0160208091040260200160405190810160405280929190818152602001828054612bd6906140f7565b8015612c215780601f10612bf857610100808354040283529160200191612c21565b820191905f5260205f20905b815481529060010190602001808311612c0457829003601f168201915b50505050508152602001600682018054612c3a906140f7565b80601f0160208091040260200160405190810160405280929190818152602001828054612c66906140f7565b8015612cb15780601f10612c8857610100808354040283529160200191612cb1565b820191905f5260205f20905b815481529060010190602001808311612c9457829003601f168201915b50505050508152602001600782016040518060e00160405290815f82015f9054906101000a900460ff166002811115612ced57612cec613d99565b5b6002811115612cff57612cfe613d99565b5b81526020015f820160019054906101000a900460ff166002811115612d2757612d26613d99565b5b6002811115612d3957612d38613d99565b5b81526020015f820160029054906101000a900460ff166002811115612d6157612d60613d99565b5b6002811115612d7357612d72613d99565b5b81526020015f820160039054906101000a900460ff166002811115612d9b57612d9a613d99565b5b6002811115612dad57612dac613d99565b5b81526020015f820160049054906101000a900460ff166002811115612dd557612dd4613d99565b5b6002811115612de757612de6613d99565b5b81526020015f820160059054906101000a900460ff166002811115612e0f57612e0e613d99565b5b6002811115612e2157612e20613d99565b5b81526020015f820160069054906101000a900460ff166002811115612e4957612e48613d99565b5b6002811115612e5b57612e5a613d99565b5b815250508152602001600882015f9054906101000a900460ff161515151581526020016009820154815250509050805f015181602001518260400151836060015184608001518560a001518660c001518760e001518861010001518961012001519a509a509a509a509a509a509a509a509a509a50509193959799509193959799565b60606001805480602002602001604051908101604052809291908181526020018280548015612f5f57602002820191905f5260205f20905b815f9054906101000a900473ffffffffffffffffffffffffffffffffffffffff1673ffffffffffffffffffffffffffffffffffffffff1681526020019060010190808311612f16575b5050505050905090565b5f5f8273ffffffffffffffffffffffffffffffffffffffff1673ffffffffffffffffffffffffffffffffffffffff1681526020019081526020015f206008015f9054906101000a900460ff16612ff4576040517f08c379a0000000000000000000000000000000000000000000000000000000008152600401612feb906140ac565b60405180910390fd5b5f5f5f8373ffffffffffffffffffffffffffffffffffffffff1673ffffffffffffffffffffffffffffffffffffffff1681526020019081526020015f206008015f6101000a81548160ff02191690831515021790555060405180602001604052805f8152505f5f8373ffffffffffffffffffffffffffffffffffffffff1673ffffffffffffffffffffffffffffffffffffffff1681526020019081526020015f205f0190816130a391906142c7565b5060405180602001604052805f8152505f5f8373ffffffffffffffffffffffffffffffffffffffff1673ffffffffffffffffffffffffffffffffffffffff1681526020019081526020015f2060010190816130fe91906142c7565b5060405180602001604052805f8152505f5f8373ffffffffffffffffffffffffffffffffffffffff1673ffffffffffffffffffffffffffffffffffffffff1681526020019081526020015f20600201908161315991906142c7565b5060405180602001604052805f8152505f5f8373ffffffffffffffffffffffffffffffffffffffff1673ffffffffffffffffffffffffffffffffffffffff1681526020019081526020015f2060030190816131b491906142c7565b5060405180602001604052805f8152505f5f8373ffffffffffffffffffffffffffffffffffffffff1673ffffffffffffffffffffffffffffffffffffffff1681526020019081526020015f20600401908161320f91906142c7565b5060405180602001604052805f8152505f5f8373ffffffffffffffffffffffffffffffffffffffff1673ffffffffffffffffffffffffffffffffffffffff1681526020019081526020015f20600501908161326a91906142c7565b5060405180602001604052805f8152505f5f8373ffffffffffffffffffffffffffffffffffffffff1673ffffffffffffffffffffffffffffffffffffffff1681526020019081526020015f2060060190816132c591906142c7565b505f5f5f8373ffffffffffffffffffffffffffffffffffffffff1673ffffffffffffffffffffffffffffffffffffffff1681526020019081526020015f20600901819055505f5f90505b600180549050811015613484578173ffffffffffffffffffffffffffffffffffffffff166001828154811061334757613346614396565b5b905f5260205f20015f9054906101000a900473ffffffffffffffffffffffffffffffffffffffff1673ffffffffffffffffffffffffffffffffffffffff160361347757600180808054905061339c91906143f0565b815481106133ad576133ac614396565b5b905f5260205f20015f9054906101000a900473ffffffffffffffffffffffffffffffffffffffff16600182815481106133e9576133e8614396565b5b905f5260205f20015f6101000a81548173ffffffffffffffffffffffffffffffffffffffff021916908373ffffffffffffffffffffffffffffffffffffffff16021790555060018054806134405761343f614423565b5b600190038181905f5260205f20015f6101000a81549073ffffffffffffffffffffffffffffffffffffffff02191690559055613484565b808060010191505061330f565b508073ffffffffffffffffffffffffffffffffffffffff167f4bc56f1321288dfb5b416cb3a7fd188723979f9e866c91d88eccf7fca039d03960405160405180910390a250565b5f5f905092915050565b6040518060e00160405280606081526020016060815260200160608152602001606081526020016060815260200160608152602001606081525090565b6040518060e001604052805f60028111156135305761352f613d99565b5b81526020015f600281111561354857613547613d99565b5b81526020015f60028111156135605761355f613d99565b5b81526020015f600281111561357857613577613d99565b5b81526020015f60028111156135905761358f613d99565b5b81526020015f60028111156135a8576135a7613d99565b5b81526020015f60028111156135c0576135bf613d99565b5b81525090565b5f604051905090565b5f5ffd5b5f5ffd5b5f5ffd5b5f601f19601f8301169050919050565b7f4e487b71000000000000000000000000000000000000000000000000000000005f52604160045260245ffd5b613621826135db565b810181811067ffffffffffffffff821117156136405761363f6135eb565b5b80604052505050565b5f6136526135c6565b905061365e8282613618565b919050565b6003811061366f575f5ffd5b50565b5f8135905061368081613663565b92915050565b5f60e0828403121561369b5761369a6135d7565b5b6136a560e0613649565b90505f6136b484828501613672565b5f8301525060206136c784828501613672565b60208301525060406136db84828501613672565b60408301525060606136ef84828501613672565b606083015250608061370384828501613672565b60808301525060a061371784828501613672565b60a08301525060c061372b84828501613672565b60c08301525092915050565b5f60e0828403121561374c5761374b6135cf565b5b5f61375984828501613686565b91505092915050565b5f73ffffffffffffffffffffffffffffffffffffffff82169050919050565b5f61378b82613762565b9050919050565b61379b81613781565b81146137a5575f5ffd5b50565b5f813590506137b681613792565b92915050565b5f602082840312156137d1576137d06135cf565b5b5f6137de848285016137a8565b91505092915050565b5f8115159050919050565b6137fb816137e7565b82525050565b5f6020820190506138145f8301846137f2565b92915050565b5f5ffd5b5f5ffd5b5f67ffffffffffffffff82111561383c5761383b6135eb565b5b613845826135db565b9050602081019050919050565b828183375f83830152505050565b5f61387261386d84613822565b613649565b90508281526020810184848401111561388e5761388d61381e565b5b613899848285613852565b509392505050565b5f82601f8301126138b5576138b461381a565b5b81356138c5848260208601613860565b91505092915050565b5f602082840312156138e3576138e26135cf565b5b5f82013567ffffffffffffffff811115613900576138ff6135d3565b5b61390c848285016138a1565b91505092915050565b5f5f6040838503121561392b5761392a6135cf565b5b5f613938858286016137a8565b9250506020613949858286016137a8565b9150509250929050565b5f81519050919050565b5f82825260208201905092915050565b8281835e5f83830152505050565b5f61398582613953565b61398f818561395d565b935061399f81856020860161396d565b6139a8816135db565b840191505092915050565b5f60e083015f8301518482035f8601526139cd828261397b565b915050602083015184820360208601526139e7828261397b565b91505060408301518482036040860152613a01828261397b565b91505060608301518482036060860152613a1b828261397b565b91505060808301518482036080860152613a35828261397b565b91505060a083015184820360a0860152613a4f828261397b565b91505060c083015184820360c0860152613a69828261397b565b9150508091505092915050565b5f6020820190508181035f830152613a8e81846139b3565b905092915050565b5f5f5f5f5f5f5f60e0888a031215613ab157613ab06135cf565b5b5f88013567ffffffffffffffff811115613ace57613acd6135d3565b5b613ada8a828b016138a1565b975050602088013567ffffffffffffffff811115613afb57613afa6135d3565b5b613b078a828b016138a1565b965050604088013567ffffffffffffffff811115613b2857613b276135d3565b5b613b348a828b016138a1565b955050606088013567ffffffffffffffff811115613b5557613b546135d3565b5b613b618a828b016138a1565b945050608088013567ffffffffffffffff811115613b8257613b816135d3565b5b613b8e8a828b016138a1565b93505060a088013567ffffffffffffffff811115613baf57613bae6135d3565b5b613bbb8a828b016138a1565b92505060c088013567ffffffffffffffff811115613bdc57613bdb6135d3565b5b613be88a828b016138a1565b91505092959891949750929550565b5f5f5f5f60808587031215613c0f57613c0e6135cf565b5b5f85013567ffffffffffffffff811115613c2c57613c2b6135d3565b5b613c38878288016138a1565b945050602085013567ffffffffffffffff811115613c5957613c586135d3565b5b613c65878288016138a1565b935050604085013567ffffffffffffffff811115613c8657613c856135d3565b5b613c92878288016138a1565b925050606085013567ffffffffffffffff811115613cb357613cb26135d3565b5b613cbf878288016138a1565b91505092959194509250565b5f819050919050565b613cdd81613ccb565b8114613ce7575f5ffd5b50565b5f81359050613cf881613cd4565b92915050565b5f60208284031215613d1357613d126135cf565b5b5f613d2084828501613cea565b91505092915050565b613d3281613781565b82525050565b5f602082019050613d4b5f830184613d29565b92915050565b5f82825260208201905092915050565b5f613d6b82613953565b613d758185613d51565b9350613d8581856020860161396d565b613d8e816135db565b840191505092915050565b7f4e487b71000000000000000000000000000000000000000000000000000000005f52602160045260245ffd5b60038110613dd757613dd6613d99565b5b50565b5f819050613de782613dc6565b919050565b5f613df682613dda565b9050919050565b613e0681613dec565b82525050565b60e082015f820151613e205f850182613dfd565b506020820151613e336020850182613dfd565b506040820151613e466040850182613dfd565b506060820151613e596060850182613dfd565b506080820151613e6c6080850182613dfd565b5060a0820151613e7f60a0850182613dfd565b5060c0820151613e9260c0850182613dfd565b50505050565b613ea181613ccb565b82525050565b5f610200820190508181035f830152613ec0818d613d61565b90508181036020830152613ed4818c613d61565b90508181036040830152613ee8818b613d61565b90508181036060830152613efc818a613d61565b90508181036080830152613f108189613d61565b905081810360a0830152613f248188613d61565b905081810360c0830152613f388187613d61565b9050613f4760e0830186613e0c565b613f556101c08301856137f2565b613f636101e0830184613e98565b9b9a5050505050505050505050565b5f602082019050613f855f830184613e98565b92915050565b5f81519050919050565b5f82825260208201905092915050565b5f819050602082019050919050565b613fbd81613781565b82525050565b5f613fce8383613fb4565b60208301905092915050565b5f602082019050919050565b5f613ff082613f8b565b613ffa8185613f95565b935061400583613fa5565b805f5b8381101561403557815161401c8882613fc3565b975061402783613fda565b925050600181019050614008565b5085935050505092915050565b5f6020820190508181035f83015261405a8184613fe6565b905092915050565b7f55736572206973206e6f742072656769737465726564000000000000000000005f82015250565b5f614096601683613d51565b91506140a182614062565b602082019050919050565b5f6020820190508181035f8301526140c38161408a565b9050919050565b7f4e487b71000000000000000000000000000000000000000000000000000000005f52602260045260245ffd5b5f600282049050600182168061410e57607f821691505b602082108103614121576141206140ca565b5b50919050565b5f819050815f5260205f209050919050565b5f6020601f8301049050919050565b5f82821b905092915050565b5f600883026141837fffffffffffffffffffffffffffffffffffffffffffffffffffffffffffffffff82614148565b61418d8683614148565b95508019841693508086168417925050509392505050565b5f819050919050565b5f6141c86141c36141be84613ccb565b6141a5565b613ccb565b9050919050565b5f819050919050565b6141e1836141ae565b6141f56141ed826141cf565b848454614154565b825550505050565b5f5f905090565b61420c6141fd565b6142178184846141d8565b505050565b5b8181101561423a5761422f5f82614204565b60018101905061421d565b5050565b601f82111561427f5761425081614127565b61425984614139565b81016020851015614268578190505b61427c61427485614139565b83018261421c565b50505b505050565b5f82821c905092915050565b5f61429f5f1984600802614284565b1980831691505092915050565b5f6142b78383614290565b9150826002028217905092915050565b6142d082613953565b67ffffffffffffffff8111156142e9576142e86135eb565b5b6142f382546140f7565b6142fe82828561423e565b5f60209050601f83116001811461432f575f841561431d578287015190505b61432785826142ac565b86555061438e565b601f19841661433d86614127565b5f5b828110156143645784890151825560018201915060208501945060208101905061433f565b86831015614381578489015161437d601f891682614290565b8355505b6001600288020188555050505b505050505050565b7f4e487b71000000000000000000000000000000000000000000000000000000005f52603260045260245ffd5b7f4e487b71000000000000000000000000000000000000000000000000000000005f52601160045260245ffd5b5f6143fa82613ccb565b915061440583613ccb565b925082820390508181111561441d5761441c6143c3565b5b92915050565b7f4e487b71000000000000000000000000000000000000000000000000000000005f52603160045260245ffd5b7f55736572206e6f742072656769737465726564000000000000000000000000005f82015250565b5f614484601383613d51565b915061448f82614450565b602082019050919050565b5f6020820190508181035f8301526144b181614478565b9050919050565b7f5573657220697320616c726561647920726567697374657265640000000000005f82015250565b5f6144ec601a83613d51565b91506144f7826144b8565b602082019050919050565b5f6020820190508181035f830152614519816144e0565b9050919050565b7f454e53206e616d652063616e6e6f7420626520656d70747900000000000000005f82015250565b5f614554601883613d51565b915061455f82614520565b602082019050919050565b5f6020820190508181035f83015261458181614548565b9050919050565b5f6040820190508181035f8301526145a08185613d61565b905081810360208301526145b48184613d61565b9050939250505056fea2646970667358221220de4c223460d0960bf609f7612f3ebe3f088d0efd993219e20d342b242a0bde6764736f6c634300081e0033","linkReferences":{}},"methodIdentifiers":{"allUsers(uint256)":"a2bdedf4","deleteOtherUser(address)":"f6cb9632","deleteUser()":"026ff05e","getAllUsers()":"e2842d79","getUserCount()":"b5cb15f7","getUserDetails(address)":"cc3d967b","getVisibleProfile(address,address)":"2f99d1d2","isUserRegistered(address)":"163f7522","registerUser(string,string,string,string,string,string,string)":"4ae8af09","updateBio(string)":"76487b38","updateDisplayName(string)":"401d3518","updatePrivacySettings((uint8,uint8,uint8,uint8,uint8,uint8,uint8))":"15412f41","updateProfile(string,string,string,string)":"9483f25c","updateProfilePicture(string)":"565a4dc3","updateStatusMessage(string)":"2891cd36","users(address)":"a87430ba"},"id":22}